:100000000C942A000C94C4020C9447000C944700F2
:100010000C9447000C9447000C9447000C94470044
:100020000C9447000C9447000C9447000C94470034
:100030000C9447000C9447000C9447000C94470024
:100040000C9447000C9447000C9447000C94470014
:100050000C94470011241FBECFE5D8E0DEBFCDBF12
:1000600010E0A0E6B0E0E6EFFFE002C005900D92E0
:10007000AE37B107D9F720E0AEE7B0E001C01D927E
:10008000AD38B207E1F70E9410020C94F9070C9406
:100090000000CF93DF9362E083E00E948001D0E014
:1000A0000AC06C2F8D2F0E948601CF5F01C0C0E077
:1000B000C330B8F3DF5FD230D0F340E060E080E0DF
:1000C0000E94840340E060E082E00E9484030E947A
:1000D000100363E080E00E94140340E650E06EE706
:1000E00070E08FE790E00E94B202DF91CF91089517
:1000F000EF92FF920F931F9380917F00813059F10F
:1001000038F0823009F449C0833009F469C0F3C083
:1001100080917E0090E0019683709078992324F47A
:1001200001978C6F9F6F019680937E00E82FF0E01F
:10013000EF59FF4F808180937F0060E080E00E9454
:100140008C0168E873E180E00E942B0560E080E0AC
:100150000E949201D0C080917E0090E00196837051
:100160009078992324F401978C6F9F6F0196809368
:100170007E00E82FF0E0EF59FF4F808180937F00F1
:1001800028E833E14AEF50E061E080E00E949D0101
:1001900061E080E00E949201AEC080917E0090E01C
:1001A000019683709078992324F401978C6F9F6F48
:1001B000019680937E00E82FF0E0EF59FF4F808199
:1001C00080937F0062E080E00E948C0168E873E128
:1001D00080E00E942B0562E080E00E9492018BC0CB
:1001E00080917E008330B1F462E080E00E948C0157
:1001F00060E081E00E948C0168E873E180E00E9489
:100200002B0562E080E00E94920160E081E00E94A4
:1002100092015EC0823061F50F2EF8E8EF2EF3E117
:10022000FF2EF02D0AEF10E021E041E061E080E0D8
:100230000E94D80161E080E00E94920161E081E0CB
:100240000E94920162E080E00E948C0160E081E007
:100250000E948C0168E873E180E00E942B0562E057
:1002600080E00E94920160E081E00E94920130C033
:10027000813071F562E00E9492010F2EF8E8EF2EB6
:10028000F3E1FF2EF02D0AEF10E021E041E061E004
:1002900080E00E94D80161E080E00E94920161E06C
:1002A00081E00E94920162E080E00E948C0160E0A7
:1002B00081E00E948C0168E873E180E00E942B05D8
:1002C00062E080E00E94920160E081E00E94920181
:1002D00028E833E14AEF50E061E080E00E949D01B0
:1002E00061E080E00E94920110927F0010927E00F7
:1002F00081E0809360001F910F91FF90EF9008952F
:1003000040E00E941502811181E0089541E00E94C1
:100310001502811181E0089541E00E944E02811191
:1003200081E0089540E00E944E02811181E008952D
:100330000E949902811181E00895EF92FF920F933C
:100340001F93CF93DF93E82EF62EEA01890180E810
:1003500090E00E94BF02109281001092800013C0B2
:100360006F2D8E2D0E94980181111AC0BE0182E06E
:100370000E942B05809180009091810001969093BE
:10038000810080938000C801BE010E94E507809132
:100390008000909181008617970710F380E001C0DC
:1003A00081E0DF91CF911F910F91FF90EF90089521
:1003B000BF92CF92DF92EF92FF920F931F93CF9352
:1003C000DF93D82ED62FB42EC22EC0E011C06D2FD1
:1003D0008D2D0E949801811116C06C2D8B2D0E94CD
:1003E0009801811112C0B80182E00E942B05CF5FF5
:1003F0002C2F30E0C701B8010E94E5072617370708
:1004000030F380E003C081E001C081E0DF91CF9153
:100410001F910F91FF90EF90DF90CF90BF900895C4
:100420000E9449000E947800FDCF41111AC090E05F
:10043000FC01EE0FFF1FE80FF91FEE0FFF1FEB5936
:10044000FF4F0280F381E02D208181E090E002C027
:10045000880F991F6A95E2F780958223808380E058
:1004600008954130C9F490E0FC01EE0FFF1FE80F42
:10047000F91FEE0FFF1FEB59FF4F0280F381E02DB4
:10048000208181E090E002C0880F991F6A95E2F711
:10049000822B808380E0089581E0089590E0FC0144
:1004A000EE0FFF1FE80FF91FEE0FFF1FEB59FF4F75
:1004B0000280F381E02D2081E1E0F0E0062E02C011
:1004C000EE0FFF1F0A94E2F730E02E233F2302C015
:1004D000359527956A95E2F7232B39F1411112C022
:1004E000DC01AA0FBB1FA80FB91FAA0FBB1FAB5976
:1004F000BF4F0D90BC91A02D8C91E095E823EC931B
:1005000080E00895413099F4DC01AA0FBB1FA80FC9
:10051000B91FAA0FBB1FAB59BF4F0D90BC91A02DA7
:100520008C91E82BEC9380E0089582E0089582E0BE
:10053000089590E0FC01EE0FFF1FE80FF91FEE0F8A
:10054000FF1FEB59FF4F0190F081E02D208181E0EA
:1005500090E002C0880F991F6A95E2F78227808396
:1005600080E00895909389008093880070938700BD
:100570006093860050938500409384000895909383
:1005800083008093820008951F920F920FB60F92FE
:1005900011242F933F934F935F936F937F938F9388
:1005A0009F93AF93BF93EF93FF93E0918400F091FB
:1005B00085008081813019F51082E0918600F091EC
:1005C00087008081813029F441E062E00E944E0280
:1005D00010C081E090E090938C0080938B0080931A
:1005E0008A00E0918200F091830087EE93E091838E
:1005F0008083E0918800F091890083E08083FF91FF
:10060000EF91BF91AF919F918F917F916F915F918A
:100610004F913F912F910F900FBE0F901F90189503
:100620008FB780688FBF0895813069F120F08230E4
:1006300009F451C061C0613069F028F0623089F07E
:100640006330B1F05BC085B78E7F85BF85B78D7F86
:1006500085BF14C085B7816085BF85B78D7F85BF95
:100660000DC085B78E7F85BF85B7826085BF06C008
:1006700085B7816085BF85B7826085BF8BB7806491
:100680008BBF80E00895613069F028F0623089F016
:100690006330B1F035C085B78B7F85BF85B7877F65
:1006A00085BF14C085B7846085BF85B7877F85BF48
:1006B0000DC085B78B7F85BF85B7886085BF06C0B5
:1006C00085B7846085BF85B7886085BF8BB7806834
:1006D0008BBF80E00895623019F0633029F012C0BA
:1006E00084B78F7B84BF03C084B7806484BF8BB71B
:1006F00080628BBF80E0089580E0089581E00895D6
:1007000081E0089581E00895882321F0823009F482
:100710004BC082C0613069F028F0623089F06330EC
:10072000B1F07CC083B7877F83BF83B78F7B83BFE4
:1007300014C083B7886083BF83B78F7B83BF0DC02E
:1007400083B7886083BF83B7806483BF06C083B7E5
:10075000877F83BF83B7806483BF413079F018F00F
:100760004230B9F05DC083B78E7F83BF83B78D7F82
:1007700083BF83B78B7F83BF80E0089583B7816099
:1007800083BF83B7826083BF83B7846083BF80E009
:10079000089583B78E7F83BF83B7826083BF83B79B
:1007A000846083BF80E00895613069F028F0623092
:1007B00089F06330B1F036C083B7877F83BF83B7DA
:1007C0008F7B83BF14C083B7886083BF83B78F7B61
:1007D00083BF0DC083B7886083BF83B7806483BF46
:1007E00006C083B7877F83BF83B7806483BF4423FA
:1007F00019F0433061F018C083B78E7F83BF83B791
:100800008D7F83BF83B78B7F83BF80E0089582B5E0
:10081000886082BD80E0089581E0089581E00895B8
:1008200081E0089581E0089581E00895882321F012
:10083000823009F44CC0B7C042BF6034710531F159
:1008400038F46130710561F068307105A1F0ADC018
:10085000611581E0780729F16115744069F1A5C03F
:1008600083B7816083BF83B78D7F83BF83B78B7F5F
:1008700083BF80E0089583B78E7F83BF83B7826094
:1008800083BF83B78B7F83BF80E0089583B7816088
:1008900083BF83B7826083BF83B78B7F83BF80E0D2
:1008A000089583B78E7F83BF83B78D7F83BF83B760
:1008B000846083BF80E0089583B7816083BF83B77E
:1008C0008D7F83BF83B7846083BF80E0089544BD7C
:1008D00060347105E1F158F46830710511F160324E
:1008E000710551F16130710509F061C00FC06115EA
:1008F00081E0780709F441C0611584E0780709F4C4
:1009000047C06038710509F052C02CC085B58160C0
:1009100085BD85B58D7F85BD85B58B7F85BD80E027
:10092000089585B58E7F85BD85B5826085BD85B509
:100930008B7F85BD80E0089585B5816085BD85B5D7
:10094000826085BD85B58B7F85BD80E0089585B5C6
:100950008E7F85BD85B58D7F85BD85B5846085BD60
:1009600080E0089585B5816085BD85B58D7F85BDA5
:1009700085B5846085BD80E0089585B58E7F85BD91
:1009800085B5826085BD85B5846085BD80E00895AC
:1009900085B5816085BD85B5826085BD85B584607E
:1009A00085BD80E0089581E0089581E0089581E0AB
:1009B0000895882319F0823061F016C083B78E7FC6
:1009C00083BF83B78D7F83BF83B78B7F83BF80E077
:1009D000089585B58E7F85BD85B58D7F85BD85B52F
:1009E0008B7F85BD80E0089581E00895882319F00C
:1009F000823039F015C088B78170FB01808380E0B8
:100A0000089588B7807490E0082E892F000C881F05
:100A1000990B000C881F991FFB01808380E00895CB
:100A200081E00895882319F0823051F012C012BE7F
:100A300088B7816088BF88B7826088BF80E00895EA
:100A400014BC88B7806488BF88B7806888BF80E09E
:100A5000089581E008958F929F92AF92BF92CF92B6
:100A6000DF92EF92FF92CF93DF93C82F80E090E068
:100A70000E94F2066B017C012FE632E143E852E46A
:100A80000E9445068823C4F481E090E090938C0096
:100A900080938B00A70196016FE672E183E892E4F0
:100AA0000E94C1052FE632E143E85EE30E944A0658
:100AB0000E94BC06D62F54C02FE632E143E852E430
:100AC000C701B6010E944A060E942E060E94C30674
:100AD0004B015C0170938C0060938B002FE632E138
:100AE00043E85EE3C701B6010E944A066B017C0140
:100AF000B40180E090E00E94F2069B01AC01C701C6
:100B0000B6010E944A069B01AC0160E070E080E8FB
:100B100093E40E94C1050E94BC06D62F21C04D2F30
:100B200060E071E08C2F0E94160405C06AE870E056
:100B30008C2F0E94F60480918A008823B9F38C2FB1
:100B40000E94D9048C2F0E94120510928A00809175
:100B50008B0090918C00019790938C0080938B0078
:100B600080918B0090918C00892BC9F6DF91CF91F9
:100B7000FF90EF90DF90CF90BF90AF909F908F90BD
:100B800008955058BB27AA270E94D9050C949307B3
:100B90000E94850738F00E948C0720F039F49F3FAF
:100BA00019F426F40C9482070EF4E095E7FB0C94FC
:100BB0005307E92F0E94A40758F3BA176207730777
:100BC0008407950720F079F4A6F50C94DE070EF45F
:100BD000E0950B2EBA2FA02D0B01B90190010C014D
:100BE000CA01A0011124FF27591B99F0593F50F465
:100BF000503E68F11A16F040A22F232F342F4427BD
:100C0000585FF3CF469537952795A795F0405395B4
:100C1000C9F77EF41F16BA0B620B730B840BBAF084
:100C20009150A1F0FF0FBB1F661F771F881FC2F7EF
:100C30000EC0BA0F621F731F841F48F48795779503
:100C40006795B795F7959E3F08F0B0CF9395880FBD
:100C500008F09927EE0F9795879508950E94C6078B
:100C600090F09F3748F4911116F40C94DF0760E080
:100C700070E080E89FE3089526F01B16611D711D4A
:100C8000811D0C9459070C9474070E942F0708F4D7
:100C900081E008950E945E060C9493070E948C07E1
:100CA00058F00E94850740F029F45F3F29F00C942A
:100CB000530751110C94DF070C9482070E94A4077C
:100CC00068F39923B1F3552391F3951B550BBB277B
:100CD000AA2762177307840738F09F5F5F4F220FC0
:100CE000331F441FAA1FA9F335D00E2E3AF0E0E8B7
:100CF00032D091505040E695001CCAF72BD0FE2F01
:100D000029D0660F771F881FBB1F26173707480794
:100D1000AB07B0E809F0BB0B802DBF01FF2793584C
:100D20005F4F3AF09E3F510578F00C9453070C94B6
:100D3000DF075F3FE4F3983ED4F386957795679598
:100D4000B795F7959F5FC9F7880F911D9695879581
:100D500097F90895E1E0660F771F881FBB1F6217A0
:100D600073078407BA0720F0621B730B840BBA0B5E
:100D7000EE1F88F7E09508950E94C3066894B111AC
:100D80000C94DF0708950E94AC0788F09F5798F0F5
:100D9000B92F9927B751B0F0E1F0660F771F881F80
:100DA000991F1AF0BA95C9F714C0B13091F00E949A
:100DB000DE07B1E008950C94DE07672F782F8827AF
:100DC000B85F39F0B93FCCF3869577956795B395C1
:100DD000D9F73EF490958095709561957F4F8F4F30
:100DE0009F4F0895E89409C097FB3EF49095809535
:100DF000709561957F4F8F4F9F4F9923A9F0F92FE1
:100E000096E9BB279395F695879577956795B7955E
:100E1000F111F8CFFAF4BB0F11F460FF1BC06F5F44
:100E20007F4F8F4F9F4F16C0882311F096E911C056
:100E3000772321F09EE8872F762F05C0662371F077
:100E400096E8862F70E060E02AF09A95660F771F8B
:100E5000881FDAF7880F9695879597F90895990F67
:100E60000008550FAA0BE0E8FEEF16161706E80774
:100E7000F907C0F012161306E407F50798F0621B95
:100E8000730B840B950B39F40A2661F0232B242B6A
:100E9000252B21F408950A2609F4A140A6958FEF89
:100EA000811D811D089597F99F6780E870E060E0DB
:100EB0000895882371F4772321F09850872B762F9B
:100EC00007C0662311F499270DC09051862B70E05E
:100ED00060E02AF09A95660F771F881FDAF7880F6F
:100EE0009695879597F908959F3F31F0915020F49A
:100EF000879577956795B795880F911D96958795F6
:100F000097F908959FEF80EC089500240A9416162F
:100F1000170618060906089500240A9412161306E7
:100F2000140605060895092E0394000C11F4882375
:100F300052F0BB0F40F4BF2B11F460FF04C06F5F91
:100F40007F4F8F4F9F4F089557FD9058440F551F67
:100F500059F05F3F71F04795880F97FB991F61F03B
:100F60009F3F79F087950895121613061406551FB2
:100F7000F2CF4695F1DF08C0161617061806991F1E
:100F8000F1CF869571056105089408950E94AC071C
:100F9000A0F0BEE7B91788F4BB279F3860F4161697
:100FA000B11D672F782F8827985FF7CF86957795A3
:100FB0006795B11D93959639C8F30895E894BB27BA
:100FC00066277727CB0197F90895AA1BBB1B51E130
:100FD00007C0AA1FBB1FA617B70710F0A61BB70BA9
:100FE000881F991F5A95A9F780959095BC01CD014E
:060FF0000895F894FFCF04
:100FF60001000102013B003A003900380037003693
:0E1006000035003400330032003100300000AD
:00000001FF
